:020000040800F2
:1000000000800120E91A0008E1060008E306000864
:10001000E5060008E7060008E90600080000000001
:10002000000000000000000000000000EB060008D7
:10003000ED06000800000000EF060008F1060008C9
:10004000391B0008391B0008391B0008391B000840
:10005000391B0008391B0008391B0008391B000830
:10006000391B0008391B0008391B0008391B000820
:10007000391B0008391B0008391B0008391B000810
:10008000391B0008391B0008391B0008000000005C
:10009000000000000000000000000000391B000804
:1000A000391B0008391B0008391B0008391B0008E0
:1000B000391B0008391B0008391B0008391B0008D0
:1000C000391B0008391B0008391B0008391B0008C0
:1000D000391B0008391B0008391B0008000000000C
:1000E000391B0008391B0008391B000800000000FC
:1000F000000000000000000000000000391B0008A4
:1001000000000000391B0008391B0008391B0008DB
:1001100000000000000000000000000000000000DF
:10012000391B0008391B0008391B0008391B00085F
:10013000391B000800000000000000000000000063
:10014000000000000000000000000000391B000853
:10015000391B0008391B0008391B0008391B00082F
:10016000391B0008391B00080000000000000000D7
:10017000000000000000000000000000000000007F
:1001800000000000391B0008000000000000000013
:04019000391B00080F
:1001940010B5054C237833B9044B13B10448AFF3BD
:1001A40000800123237010BD0C000020000000001B
:1001B400841B000808B5034B1BB103490348AFF384
:1001C400008008BD0000000010000020841B00080F
:1001D40053B94AB9002908BF00281CBF4FF0FF31AA
:1001E4004FF0FF3000F072B9ADF1080C6DE904CEA8
:1001F40000F006F8DDF804E0DDE9022304B07047FE
:100204002DE9F047089E04468846002B4BD18A42CC
:10021400154667D9B2FA82F24AB1C2F1200701FA4F
:1002240002F320FA07F7954047EA030894404FEA9F
:10023400154E230CB8FBFEF71FFA85FC0EFB17883E
:1002440043EA084307FB0CF1994209D9EB1807F17B
:10025400FF3080F01B81994240F21881023F2B4409
:100264005B1AA4B2B3FBFEF00EFB103344EA034462
:1002740000FB0CFCA44509D92C1900F1FF3380F0D4
:100284000781A44540F2048102382C4440EA074027
:10029400A4EB0C0400271EB1D4400023C6E900439C
:1002A4003946BDE8F0878B4209D9002E00F0EB8077
:1002B4000027C6E9000138463946BDE8F087B3FA9D
:1002C40083F7002F47D18B4202D3824200F2FA8097
:1002D400841A61EB030301209846002EE0D0C6E99E
:1002E4000048DDE702B9FFDEB2FA82F2002A40F0EC
:1002F4008F80491B4FEA154E1FFA85F80127B1FB81
:10030400FEFC230C0EFB1C1143EA014308FB0CF119
:10031400994207D9EB180CF1FF3002D2994200F24E
:10032400CD808446591AA3B2B1FBFEF00EFB101423
:1003340043EA044408FB00F8A04507D92C1900F14E
:10034400FF3302D2A04500F2B6801846A4EB08049D
:1003540040EA0C409FE7C7F1200CBB4022FA0CFE98
:100364004EEA030E01FA07F420FA0CF521FA0CF315
:100374004FEA1E482543B3FBF8F92C0C08FB19334C
:100384001FFA8EFA44EA034309FB0AF49C4202FA78
:1003940007F200FA07F10BD91EEB030309F1FF3052
:1003A40080F087809C4240F28480A9F10209734462
:1003B4001B1BADB2B3FBF8F008FB103345EA034452
:1003C40000FB0AFAA24508D91EEB040400F1FF332E
:1003D4006BD2A24569D90238744440EA0940A0FBB3
:1003E4000289A4EB0A044C45C2464B4654D351D06F
:1003F400002E69D0B1EB0A0564EB030404FA0CFC8B
:10040400FD40FC404CEA0505C6E90054002747E7D7
:10041400C2F1200320FA03F7954001FA02F021FA11
:1004240003F34FEA154E3843010CB3FBFEF71FFAF2
:1004340085F80EFB173341EA034107FB08F38B42AF
:1004440004FA02F407D9691807F1FF3C2FD28B4252
:100454002DD9023F2944CB1A81B2B3FBFEF00EFB27
:10046400103341EA034100FB08F38B4207D96918B2
:1004740000F1FF3C17D28B4215D902382944C91A1E
:1004840040EA07473BE73746304609E70746E7E6D1
:100494001846FBE64145ABD2B8EB020A69EB0E0203
:1004A40001381346A4E76046E9E7184695E767462E
:1004B400D1E781467CE702382C4447E7ACF1020CD3
:1004C4002B442FE7384608E73746E9E6704700BF74
:1004D40082B0002100910B4B1A6B42F001021A63A7
:1004E4001A6B02F001020092009A01911A6B42F019
:1004F40002021A631B6B03F002030193019B02B017
:10050400704700BF00380240FEE7000000B595B018
:1005140000220192244B196C41F0805119641B6C28
:1005240003F080530193019B029220490B6823F44A
:10053400404343F400430B600B6803F440430293CD
:10054400029B0223089301230B9310230C930E9216
:1005540008A800F019FEF0B90F23039300210491B9
:1005640005910691079103A801F02EF8B8B901F09E
:10057400D7F80F4BA3FB0030800901F00FFA0420D9
:1005840001F022FA002211464FF0FF3001F0D2F9B7
:1005940015B05DF804FB51210648FFF7B5FF5F2154
:1005A4000448FFF7B1FF00BF00380240007000406C
:1005B400D34D6210AC1B000800B585B01448154B30
:1005C4000360002343608360036183610362C36249
:1005D400114A8262C3600122C2610363426100F076
:1005E400E9F960B90023009301220192029369465C
:1005F400074800F009FA30B905B05DF804FB84211E
:100604000648FFF781FF8E210448FFF77DFF00BFF6
:100614007C000020002001400100000FAC1B0008FA
:1006240008B50B480B4B03600B4B436000238360FE
:10063400C3604FF48042026143618361C36103621A
:1006440000F0AAFA00B908BDA2210448FFF75CFF34
:100654002800002000540040A0860100AC1B0008C4
:1006640008B50B480B4B03604FF41653436000234B
:100674008360C36003610C2242618361C36100F043
:10068400E4FC00B908BDB5210348FFF73DFF00BFF6
:10069400C400002000100140AC1B000800B585B068
:1006A40001F0CEF9FFF732FFFFF712FFFFF784FFE7
:1006B400FFF7B6FFFFF7D4FF064B01AC93E8070042
:1006C40084E807004FF0FF330C222146024800F073
:1006D400EBFCFEE79C1B0008C40000207047FEE70B
:1006E400FEE7FEE7FEE770477047704708B501F084
:1006F400C1F901F07AF908BD10B582B00024009464
:10070400214B5A6C42F480425A645A6C02F480427F
:100714000092009A01941A6C42F080521A641B6C85
:1007240003F080530193019B032001F0F1F822466A
:1007340021466FF00B0001F0FDF8224621466FF0D0
:100744000A0001F0F7F8224621466FF0090001F093
:10075400F1F8224621466FF0040001F0EBF822463E
:1007640021466FF0030001F0E5F8224621466FF0C0
:10077400010001F0DFF8224621464FF0FF3001F07E
:10078400D9F802B010BD00BF0038024002680F4B18
:100794009A4200D0704700B587B00021009103F55C
:1007A4008C335A6C42F480725A645B6C03F4807329
:1007B4000093009B032301930293039101A904482E
:1007C40000F0D4FF07B05DF804FB00BF0020014037
:1007D400000002400268124B9A4200D0704700B5F4
:1007E40087B0C023019312230293012303930323AD
:1007F4000493042305930DEB03010A4800F0B6FFAC
:1008040000230093084B1A6C42F400121A641B6C08
:1008140003F400130093009B07B05DF804FB00BFD2
:100824000054004000040240003802400268124BA9
:100834009A4200D0704700B587B0002300930F4B55
:100844005A6C42F010025A645B6C03F0100300937C
:10085400009B4FF4C063019302230293012303938B
:10086400032304930723059301A9054800F07EFFA1
:1008740007B05DF804FB00BF0010014000380240DF
:1008840000000240494B5A6822F440325A605A68C8
:1008940041680A435A600268536823F480735360C2
:1008A40002685368016943EA01235360026853688C
:1008B40023F0407353600268536881680B435360AC
:1008C4000268936823F40063936002689368C168C4
:1008D4000B439360826A364B9A4249D0026893680C
:1008E40023F07063936002689368816A0B4393609A
:1008F4000268936823F04053936002689368C16A66
:100904000B4393600268936823F0020393600268C8
:100914009368816943EA41039360036A002B32D1EF
:100924000268536823F4006353600268D36A23F4B3
:100934007003D3620168CB6AC269013A43EA025385
:10094400CB620268936823F400739360026893682F
:10095400016B43EA412393600268936823F4806344
:10096400936002689368416943EA81239360704706
:100974000268936823F0706393600268936823F0BD
:1009840040539360BEE70268536843F400635360C6
:100994000268536823F46043536001684B68426AF9
:1009A400013A43EA42334B60BFE700BF00230140F2
:1009B4000100000F30B310B50446036C43B1236C3F
:1009C40013F0100F0AD00120002384F83C3010BD2E
:1009D400436480F83C30FFF7D9FEF0E7236C23F43E
:1009E400885323F0020343F0020323642046FFF7F5
:1009F40049FF00206064236C23F0030343F00103E8
:100A04002364E1E70120704730B482B000230193EE
:100A140090F83C30012B00F0B780012380F83C3083
:100A24000B68092B3ED90568EA689BB203EB4303C4
:100A34001E3B072404FA03F322EA0303EB60056870
:100A4400EA688C680B8803EB43031E3B04FA03F348
:100A54001343EB604B68062B3AD805686A6B03EBCB
:100A64008303053B1F2404FA03F322EA03036B63A5
:100A740005686A6B4B6803EB8303053B0C8804FA37
:100A840003F313436B630268404B9A4250D00268ED
:100A94003E4B9A4255D0002380F83C30184602B0B1
:100AA40030BC704705682A699BB203EB43030724F3
:100AB40004FA03F322EA03032B6105682A698C68AC
:100AC4000B8803EB430304FA03F313432B61C1E7DD
:100AD4000C2B16D805682A6B03EB8303233B1F24D6
:100AE40004FA03F322EA03032B6305682A6B4B68B9
:100AF40003EB8303233B0C8804FA03F313432B63B4
:100B0400C1E70568EA6A03EB8303413B1F2404FA47
:100B140003F322EA0303EB620568EA6A4B6803EB1A
:100B24008303413B0C8804FA03F31343EB62AAE703
:100B34000B68122BABD1164A536843F480035360FD
:100B4400A5E70B68103B012BA5D8114A536843F461
:100B5400000353600B68102B9DD10E4B1B6802F1F0
:100B6400467202F52E3202F28332A2FB03239B0C5F
:100B740003EB83035A00019202E0019B013B0193C2
:100B8400019B002BF9D186E7022088E70020014071
:100B94000023014008000020002800F0828010B5E6
:100BA400044690F83D30002B41D0242384F83D3096
:100BB4002268136823F00103136000F0B7FD3A4B79
:100BC400A3FB00239B0C226853606168374A91425F
:100BD40032D80133226813626368344A934235D8A9
:100BE4005B00B0FBF3F0C0F30B03032B00D804202D
:100BF4002368D861E369216A22680B43136023697F
:100C0400E16822680B4393606369A16922680B431E
:100C1400D3602268136843F001031360002020644A
:100C2400202384F83D30206384F83E0010BD80F812
:100C34003C30FFF7CFFDB8E74FF4967202FB03F3A5
:100C44001B4AA2FB03239B090133C3E7A16889B9AB
:100C540003EB4302B0FBF2F2C2F30B02B2FA82F2EC
:100C64005209E2B991B903EB4303B0FBF3F040F44A
:100C74000040BDE703EB830202EB8202B0FBF2F219
:100C8400C2F30B02B2FA82F25209EAE703EB8303DE
:100C940003EB8303B0FBF3F040F44040A8E70120EA
:100CA400A6E70120704700BF83DE1B43A086010036
:100CB400D34D62102DE9F843044601680A6922F411
:100CC4004052C36813430B610168CA6822F4164298
:100CD40022F00C0283680069034360690343E069FE
:100CE40003431343CB6021684A6922F44072A36929
:100CF40013434B61E369B3F5004F60D02368B84AEE
:100D0400934200F0148102F58062934200F00F8157
:100D140000F00CFD00EB800000EB80006568AD0086
:100D2400B0FBF5F5AF4FA7FB05356D092E0100F0BB
:100D3400FDFC00EB800000EB80006568AD00B0FBBB
:100D4400F5F900F0F3FC00EB800000EB800065682F
:100D5400AD00B0FBF5F5A7FB05356D094FF0640850
:100D640008FB15952D013235A7FB05356D0905F0F6
:100D7400F005354400F0DAFC00EB800000EB800065
:100D84006668B600B0FBF6F600F0D0FC00EB80001D
:100D940000EB800063689B00B0FBF3F0A7FB00301E
:100DA400400908FB10684FEA081808F13208A7FB4D
:100DB4000837C7F3431723682F449F600DE1236866
:100DC400874A93425BD002F58062934257D000F089
:100DD400ADFC00EB800000EB800065686D00B0FBAB
:100DE400F5F5804FA7FB05356D092E0100F09EFC3B
:100DF40000EB800000EB800065686D00B0FBF5F946
:100E040000F094FC00EB800000EB800065686D004E
:100E1400B0FBF5F5A7FB05356D094FF0640808FB39
:100E24001595ED003235A7FB05356D096D0005F408
:100E3400F875354400F07AFC00EB800000EB80008C
:100E440066687600B0FBF6F600F070FC00EB8000FC
:100E540000EB800063685B00B0FBF3F3A7FB0323A4
:100E64005B0908FB13684FEAC80808F13208A7FBBE
:100E74000837C7F3421723682F449F60ADE000F0A2
:100E840065FC00EB800000EB800065686D00B0FB42
:100E9400F5F5544FA7FB05356D092E0100F056FCFE
:100EA40000EB800000EB800065686D00B0FBF5F995
:100EB40000F04CFC00EB800000EB800065686D00E6
:100EC400B0FBF5F5A7FB05356D094FF0640808FB89
:100ED4001595ED003235A7FB05356D096D0005F458
:100EE400F875354400F032FC00EB800000EB800024
:100EF40066687600B0FBF6F600F028FC00EB800094
:100F040000EB800063685B00B0FBF3F3A7FB0323F3
:100F14005B0908FB13684FEAC80808F13208A7FB0D
:100F24000837C7F3421723682F449F6055E000F049
:100F34000DFC00EB800000EB80006568AD00B0FBA9
:100F4400F5F5284FA7FB05356D092E0100F0FEFBD2
:100F540000EB800000EB80006568AD00B0FBF5F9A4
:100F640000F0F4FB00EB800000EB80006568AD004E
:100F7400B0FBF5F5A7FB05356D094FF0640808FBD8
:100F840015952D013235A7FB05356D0905F0F005E2
:100F9400354400F0DBFB00EB800000EB800066686A
:100FA400B600B0FBF6F600F0D1FB00EB800000EBDE
:100FB400800063689B00B0FBF3F0A7FB003040099E
:100FC40008FB10684FEA081808F13208A7FB083735
:100FD400C7F3431723682F449F60BDE8F88300BF1D
:100FE400001001401F85EB512DE9F04105460F46E5
:100FF40016469846069C2B681B6837EA03030CBF09
:1010040001230023B3421DD1B4F1FF3FF3D02CB12F
:1010140000F03CFDA0EB0800A042ECD92A68D3689C
:1010240023F4D073D3602A68536923F00103536116
:10103400202385F8393085F83A30002385F8383094
:10104400032000E00020BDE8F08158B310B5044649
:1010540090F839300BB3242384F839302268D368EC
:1010640023F40053D3602046FFF724FE226813695B
:1010740023F4904313612268536923F02A035361D4
:101084002268D36843F40053D3600020E063202334
:1010940084F8393084F83A3010BD80F83830FFF7DE
:1010A400C5FBD8E7012070472DE9F04182B01E4608
:1010B40090F83930DBB2202B55D104460D469046CA
:1010C400002955D0002A55D090F83830012B53D040
:1010D400012380F838300023C363212380F839309A
:1010E40000F0D4FC0746A4F82480A4F8268010E07D
:1010F40000963B46002280212046FFF775FF00281A
:101104003CD12B882268C3F3080353602369C3B915
:101114000235E38C9BB2B3B1E38C013B9BB2E38415
:10112400A368B3F5805FE3D000963B46002280219C
:101134002046FFF759FF18BB2A7823685A60013507
:10114400E7E70135E5E700963B46002240212046CB
:10115400FFF74AFF0346A8B9202284F83920002269
:1011640084F8382000E00223184602B0BDE8F0817C
:101174000123F9E70123F7E70223F5E70323F3E764
:101184000323F1E70323EFE7002800F0BB8170B5E8
:1011940082B00446036813F0010F3BD0A74B9B6851
:1011A40003F00C03042B2CD0A44B9B6803F00C031A
:1011B400082B21D06368B3F5803F4FD0B3F5A02F3F
:1011C40052D09E4B1A6822F480321A601A6822F4B4
:1011D40080221A606368002B50D000F057FC05464B
:1011E400964B1B6813F4003F14D100F04FFC401BD6
:1011F4006428F5D903208AE1904B5B6813F4800FCF
:10120400D8D08E4B1B6813F4003F03D06368002BC7
:1012140000F07A81236813F0020F55D0874B9B6846
:1012240013F00C0F3ED0854B9B6803F00C03082B86
:1012340033D0E368002B68D0814B01221A6000F0A0
:1012440025FC05467D4B1B6813F0020F54D100F0BA
:101254001DFC401B0228F5D9032058E1774A136886
:1012640043F480331360B5E7744B1A6842F4802268
:101274001A601A6842F480321A60ABE700F006FC88
:1012840005466E4B1B6813F4003FC3D000F0FEFB11
:10129400401B6428F5D9032039E1684B5B6813F4DB
:1012A400800FC6D1654B1B6813F0020F04D0E368AE
:1012B400012B01D001202AE1604A136823F0F803CE
:1012C400216943EAC1031360236813F0080F40D077
:1012D400636963B35B4B01221A6000F0D7FB0546D8
:1012E400564B5B6F13F0020F33D100F0CFFB401B62
:1012F4000228F5D903200AE1504A136823F0F803C1
:10130400216943EAC1031360DEE74D4B00221A60F2
:1013140000F0BCFB0546494B1B6813F0020FD3D009
:1013240000F0B4FB401B0228F5D90320EFE0454B45
:1013340000221A6000F0AAFB0546404B5B6F13F0D5
:10134400020F06D000F0A2FB401B0228F5D90320AF
:10135400DDE0236813F0040F79D0384B1B6C13F0D5
:10136400805F33D100230193344B1A6C42F08052D6
:101374001A641B6C03F080530193019B0125324BCB
:101384001B6813F4807F23D0A368012B34D0052B72
:1013940038D02A4B1A6F22F001021A671A6F22F012
:1013A40004021A67A368002B36D000F06FFB0646D0
:1013B400224B1B6F13F0020F48D100F067FB801B18
:1013C40041F288339842F3D90320A0E00025D6E700
:1013D4001D4A136843F48073136000F057FB0646FC
:1013E400194B1B6813F4807FCED100F04FFB801B98
:1013F4000228F5D903208AE0104A136F43F0010351
:101404001367CFE70D4B1A6F42F004021A671A6F85
:1014140042F001021A67C5E700F038FB0646074BA5
:101424001B6F13F0020F11D000F030FB801B41F250
:1014340088339842F3D9032069E000BF00380240A2
:1014440000004742800E474200700040E5B9A3699E
:10145400002B5BD0304A926802F00C02082A58D064
:10146400022B17D02D4B00221A6000F00FFB04460C
:10147400294B1B6813F0007F42D000F007FB001BD0
:101484000228F5D9032042E0234A136C23F0805349
:101494001364DCE7214B00221A6000F0F7FA0546DA
:1014A4001D4B1B6813F0007F06D000F0EFFA401BC1
:1014B4000228F5D903202AE0E369226A1343626A09
:1014C40043EA8213A26A5208013A43EA0243E26AF7
:1014D40043EA0263104A5360104B01221A6000F081
:1014E400D5FA04460C4B1B6813F0007F06D100F0BC
:1014F400CDFA001B0228F5D9032008E0002006E0FD
:10150400002004E001207047012000E0002002B028
:1015140070BD0120FBE700BF003802406000474275
:10152400264B9B6803F00C03042B44D0082B01D0FA
:10153400234870472DE9F04B204B5A6802F03F02D4
:101544005B6813F4800F13D01C4B5968C1F38811E6
:1015540000231C48A1FB0001FEF73AFE174B5B6811
:10156400C3F3014301335B00B0FBF3F0BDE8F08B40
:10157400124B5B68C3F388131E4600275C010025E9
:10158400E41A65EB0705A90141EA9461A001001B77
:1015940061EB0501CB0043EA5073C400A01943EB8F
:1015A40007018B0243EA9053840220461946002324
:1015B400FEF70EFED2E70348704700BF0038024032
:1015C4000024F40040787D01002800F09D8070B56F
:1015D40004464F4B1B6803F00F038B4209D2CBB276
:1015E4004B4A1370136803F00F038B4201D00120A0
:1015F40070BD236813F0020F17D013F0040F04D04A
:10160400444A936843F4E0539360236813F0080F4B
:1016140004D0404A936843F4604393603D4A93681E
:1016240023F0F003A068034393600D46236813F08E
:10163400010F32D06368012B21D09A1E012A25D9CB
:10164400344A126812F0020F60D032498A6822F0DC
:10165400030213438B6000F019FA06462D4B9B6876
:1016640003F00C036268B3EB820F16D000F00EFA9D
:10167400801B41F288339842F0D90320B8E7254A09
:10168400126812F4003FE0D10120B1E7214A126848
:1016940012F0007FD9D10120AAE71D4B1B6803F08B
:1016A4000F03AB4209D9EAB2194B1A701B6803F055
:1016B4000F03AB4201D001209AE7236813F0040F13
:1016C40006D0144A936823F4E053E1680B43936013
:1016D400236813F0080F07D00E4A936823F460437D
:1016E400216943EAC1039360FFF71AFF094B9B6822
:1016F400C3F30313084AD35CD840084B1860002096
:1017040000F078F9002073E70120704701206FE7AB
:10171400003C024000380240B81B000808000020CA
:10172400014B1868704700BF0800002008B5FFF798
:10173400F7FF044B9B68C3F38223034AD35CD8406E
:1017440008BD00BF00380240C81B000808B5FFF7F9
:10175400E7FF044B9B68C3F34233034AD35CD8408E
:1017640008BD00BF00380240C81B000800230F2B2F
:1017740000F2C580F0B482B039E0042200E0002217
:10178400B2403A4302345E4E46F824205D4A14685F
:10179400EA4302EA04064F6817F4803F01D045EAA1
:1017A4000406584C2660646802EA04064F6817F47D
:1017B400003F01D045EA0406524C6660A46802EA80
:1017C40004064F6817F4801F01D045EA04064D4C07
:1017D400A660E46822404E6816F4001F01D045EA72
:1017E4000402484CE26001330F2B00F28580012291
:1017F4009A400C6804EA0205AA42F4D14C68022C0F
:1018040001D0122C10D1DE08083650F826C003F09F
:101814000704A7000F24BC402CEA040C0C69BC404C
:1018240044EA0C0440F8264004685F000326BE40E6
:10183400F64306EA040C4C6804F00304BC4044EA92
:101844000C0404604C6804F1FF3CBCF1010F03D9A3
:10185400112C01D0122C10D1846806EA040CCC6837
:10186400BC4044EA0C048460446824EA02024C68E4
:10187400C4F300149C4014434460C26816408A6850
:10188400BA403243C2604A6812F0805FABD0002293
:1018940001921D4A546C44F480445464526C02F422
:1018A40080420192019A9C08A61C154A52F826709F
:1018B40003F0030296000F22B24027EA0207134AFC
:1018C40090423FF45CAF02F5806290420ED002F584
:1018D400806290420CD002F5806290420AD002F5F8
:1018E400806290423FF449AF072249E7012247E76B
:1018F400022245E7032243E702B0F0BC7047704779
:1019040000380140003C0140003802400000024021
:10191400074AD36823F4E0631B041B0C000200F4A1
:10192400E060184340F0BF6040F40030D06070477E
:1019340000ED00E030B4174BDB68C3F30223C3F1BE
:101944000704042C28BF04241D1D062D18D9033BAD
:101954004FF0FF3505FA04F421EA0401994005FA31
:1019640003F322EA0303194300280BDB0901C9B27C
:1019740000F1604000F5614080F8001330BC70470E
:101984000023E5E700F00F000901C9B2024B195426
:10199400F4E700BF00ED00E014ED00E00138B0F121
:1019A400807F0AD2064B5860064AF02182F8231041
:1019B4000020986007221A6070470120704700BF1A
:1019C40010E000E000ED00E0042805D0054A1368AB
:1019D40023F0040313607047024A136843F00403BE
:1019E4001360704710E000E0704708B5FFF7FCFF94
:1019F40008BD000010B504460E4B18784FF47A73F6
:101A0400B3FBF0F30C4A1068B0FBF3F0FFF7C6FF2A
:101A140068B90F2C01D901200AE0002221464FF0B9
:101A2400FF30FFF787FF054B1C60002000E001201A
:101A340010BD00BF000000200800002004000020AA
:101A440008B50B4B1A6842F400721A601A6842F423
:101A540080621A601A6842F480721A600320FFF7E9
:101A640057FF0020FFF7C6FFFEF746FE002008BD23
:101A7400003C0240034A1168034B1B780B4413607B
:101A8400704700BF0401002000000020014B1868CB
:101A9400704700BF040100200F49D1F8883043F497
:101AA4007003C1F888300D4B1A6842F001021A60C5
:101AB400002098601A6822F0847222F480321A603E
:101AC400074A5A601A6822F480221A60D8604FF0DC
:101AD40000638B60704700BF00ED00E000380240F7
:101AE40010300024DFF834D0002103E00C4B5B58A5
:101AF400435004310B480C4B42189A42F6D30B4A1C
:101B040002E0002342F8043B094B9A42F9D3FFF761
:101B1400C3FF00F011F8FEF7C1FD704700800120FB
:101B2400E01B0008000000200C0000200C00002036
:101B340008010020FEE7000070B50D4E0D4CA41BFB
:101B4400A4100025A54209D10B4E0C4C00F018F846
:101B5400A41BA4100025A54205D170BD56F825305C
:101B640098470135EEE756F8253098470135F2E7F6
:101B7400D81B0008D81B0008D81B0008DC1B000871
:101B8400F8B500BFF8BC08BC9E467047F8B500BF66
:081B9400F8BC08BC9E46704736
:101B9C00426F61726420696E6974210D0A00000045
:101BAC005372632F6D61696E2E630000000000009C
:101BBC0000000000010203040607080900000000F1
:041BCC00010203040B
:081BD00034E6FF7F0100000074
:041BD800B901000847
:041BDC009501000867
:0C1BE00001000000100000000024F400D0
:0400000508001AE9EC
:00000001FF
