:020000040800F2
:100000000080012069320008750B0008770B00089A
:10001000790B00087B0B00087D0B00080000000036
:100020000000000000000000000000007F0B00083E
:10003000810B000800000000830B0008850B0008FE
:10004000B9320008B9320008B9320008B9320008E4
:10005000B9320008B9320008B9320008B9320008D4
:10006000B9320008B9320008B9320008B9320008C4
:10007000B9320008B9320008B9320008B9320008B4
:10008000B9320008B9320008910B000800000000E6
:10009000000000000000000000000000B93200086D
:1000A000B9320008B9320008B9320008B932000884
:1000B000B9320008B9320008B9320008A10B0008B3
:1000C000B10B0008B9320008B9320008B932000893
:1000D000B9320008C10B0008D10B00080000000075
:1000E000B9320008B9320008B93200080000000037
:1000F000000000000000000000000000B93200080D
:1001000000000000B9320008B9320008B932000816
:1001100000000000000000000000000000000000DF
:10012000B9320008B9320008B9320008B932000803
:10013000B9320008000000000000000000000000CC
:10014000000000000000000000000000B9320008BC
:10015000B9320008B9320008B9320008B9320008D3
:10016000B9320008B93200080000000000000000A9
:10017000000000000000000000000000000000007F
:1001800000000000B932000800000000000000007C
:04019000B932000878
:1001A00010B5054C237833B9044B13B10448AFF3B1
:1001B00000800123237010BD80010020000000009A
:1001C0002C3B000808B5034B1BB103490348AFF3B0
:1001D000008008BD00000000840100202C3B0008C6
:1001E00001F0FF01102A2BDB10F0070F08D010F8E8
:1001F000013B013A8B422DD010F0070F42B3F6D1EC
:10020000F0B441EA012141EA014122F007047FF004
:1002100000070023F0E80256083C85EA010586EA5B
:10022000010685FA47F5A3FA87F586FA47F6A5FA97
:1002300087F68EB9EED1F0BC01F0FF0102F00702A3
:1002400032B110F8013B013A83EA010313B1F8D14E
:100250000020704701387047002D06BF354603382F
:10026000073815F0010F07D1013015F4807F02BF68
:10027000013015F4C03F0130F0BC0138704700BFB9
:1002800053B94AB9002908BF00281CBF4FF0FF31FD
:100290004FF0FF3000F072B9ADF1080C6DE904CEFB
:1002A00000F006F8DDF804E0DDE9022304B0704751
:1002B0002DE9F047089E04468846002B4BD18A4220
:1002C000154667D9B2FA82F24AB1C2F1200701FAA3
:1002D00002F320FA07F7954047EA030894404FEAF3
:1002E000154E230CB8FBFEF71FFA85FC0EFB178892
:1002F00043EA084307FB0CF1994209D9EB1807F1CF
:10030000FF3080F01B81994240F21881023F2B445C
:100310005B1AA4B2B3FBFEF00EFB103344EA0344B5
:1003200000FB0CFCA44509D92C1900F1FF3380F027
:100330000781A44540F2048102382C4440EA07407A
:10034000A4EB0C0400271EB1D4400023C6E90043EF
:100350003946BDE8F0878B4209D9002E00F0EB80CA
:100360000027C6E9000138463946BDE8F087B3FAF0
:1003700083F7002F47D18B4202D3824200F2FA80EA
:10038000841A61EB030301209846002EE0D0C6E9F1
:100390000048DDE702B9FFDEB2FA82F2002A40F03F
:1003A0008F80491B4FEA154E1FFA85F80127B1FBD4
:1003B000FEFC230C0EFB1C1143EA014308FB0CF16D
:1003C000994207D9EB180CF1FF3002D2994200F2A2
:1003D000CD808446591AA3B2B1FBFEF00EFB101477
:1003E00043EA044408FB00F8A04507D92C1900F1A2
:1003F000FF3302D2A04500F2B6801846A4EB0804F1
:1004000040EA0C409FE7C7F1200CBB4022FA0CFEEB
:100410004EEA030E01FA07F420FA0CF521FA0CF368
:100420004FEA1E482543B3FBF8F92C0C08FB19339F
:100430001FFA8EFA44EA034309FB0AF49C4202FACB
:1004400007F200FA07F10BD91EEB030309F1FF30A5
:1004500080F087809C4240F28480A9F102097344B5
:100460001B1BADB2B3FBF8F008FB103345EA0344A5
:1004700000FB0AFAA24508D91EEB040400F1FF3381
:100480006BD2A24569D90238744440EA0940A0FB06
:100490000289A4EB0A044C45C2464B4654D351D0C2
:1004A000002E69D0B1EB0A0564EB030404FA0CFCDE
:1004B000FD40FC404CEA0505C6E90054002747E72B
:1004C000C2F1200320FA03F7954001FA02F021FA65
:1004D00003F34FEA154E3843010CB3FBFEF71FFA46
:1004E00085F80EFB173341EA034107FB08F38B4203
:1004F00004FA02F407D9691807F1FF3C2FD28B42A6
:100500002DD9023F2944CB1A81B2B3FBFEF00EFB7A
:10051000103341EA034100FB08F38B4207D9691805
:1005200000F1FF3C17D28B4215D902382944C91A71
:1005300040EA07473BE73746304609E70746E7E624
:100540001846FBE64145ABD2B8EB020A69EB0E0256
:1005500001381346A4E76046E9E7184695E7674681
:10056000D1E781467CE702382C4447E7ACF1020C26
:100570002B442FE7384608E73746E9E6704700BFC7
:100580007047000070B584B03F4B1B7843BB3F4AB7
:1005900013683F49A1FB03131B0913603B490B6818
:1005A00003EBC30303EBC3033A4AA2FB0323C3F3E6
:1005B0004F13394A1380538801339BB2538000256F
:1005C0000D6001950295ADF80C501288334901A8D1
:1005D00002F098FE0D223249324802F01FF80CE07A
:1005E0002A4A136830490988B3FBF1F31360264B9C
:1005F00000221A70D2E70135EDB204AB2B4413F898
:100600000C4C002CF7D1052002F0F4FD254E2A46B3
:1006100001A9304602F002F8012002F0EBFD0222AF
:100620002249304601F0FAFF002301930293ADF80E
:100630000C30194B5A88194901A802F063FE0120B9
:1006400002F0D8FD09221A49304601F0E7FF01E027
:100650000134E4B204AB234413F80C3C002BF7D173
:10066000052002F0C7FD0F4D224601A9284601F0E2
:10067000D5FF012002F0BEFD02220C49284601F000
:10068000CDFF04B070BD00BF00020020A00200201A
:10069000898888881F85EB5104020020543B00089C
:1006A000583B0008500200209C010020100100204F
:1006B000683B0008102807D8013800EB4000820092
:1006C000024B134401221A81704700BF44000020EE
:1006D00010B5052002F08EFD1E4C102221461E484A
:1006E00001F0C0FF2378DBB2472B00D010BD637848
:1006F000DBB2542BFAD1A378303BE278303AD2B255
:1007000013F0FF0311D0E35CDBB2412BEED1A35C0D
:10071000DBB24B2BEAD1114B01221A70002222606E
:1007200062600220FFF7C6FFE0E7931E0949CB5C39
:10073000DBB2412BDAD1013A8B5CDBB24B2BD5D14A
:10074000064B01221A7000220A604A600220FFF75D
:10075000B1FFCBE7900200205002002000020020F1
:1007600008B50C4800F0E4FB012002F043FD0A4B01
:100770001B889BB21E2B03D0084B1B78012B08D182
:10078000054B1988064A118000221A800320FFF7C2
:1007900091FF08BD08020020EC02002000020020AA
:1007A0009C0100202DE9F843002309E02B484A0072
:1007B0005618B4000444E580012222810133DBB2E3
:1007C000102B17D8194603EB43029000234A02442A
:1007D0005288002AF2D0214A02449588002DE5D0A3
:1007E0001E4A0244D288002AE0D01C490144013A42
:1007F000CA80E3E700262CE00134E4B2102C26D8AE
:10080000254604EB44029300144AD25AB3B29A42EA
:10081000F2D104EB44039A00104B13441B89002BC4
:10082000EAD0DFF8388067003A19930043444FF06C
:100830000009A3F8089001225A81094B53F824308B
:1008400098473D44AB009844A8F80A90D4E7013695
:10085000F6B2012EA8D80024D0E700BF4400002043
:100860000000002008B502F099FC00F025F80D4AC0
:100870000023138053800C4A13700C4A13600C4AF7
:10088000138000F071F800F099F800F0C5F800F05E
:10089000F9F800F037F900F017F900F051F9FFF717
:1008A00081FF00BF0402002000020020A0020020FF
:1008B000EC020020FEE7000000B595B00022019296
:1008C000254B196C41F0805119641B6C03F0805367
:1008D0000193019B029221490B6823F4404343F4A6
:1008E00000430B600B6803F440430293029B022316
:1008F000089301230B9310230C930E9208A801F088
:10090000CBFFF0B90F2303930021049105910691C9
:10091000079103A802F0E0F9C0B902F089FA104B80
:10092000A3FB0030800902F0E7FB042002F0FAFB91
:10093000002211464FF0FF3002F09EFB15B05DF82B
:1009400004FB19210748FFF7B5FFDBE7272105481E
:10095000FFF7B0FFE1E700BF003802400070004041
:10096000D34D6210743B000808B5002211462620C2
:1009700002F082FB262002F0B3FB00221146252064
:1009800002F07AFB252002F0ABFB0022114620206A
:1009900002F072FB202002F0A3FB002211461F2070
:1009A00002F06AFB1F2002F09BFB0022114612207E
:1009B00002F062FB122002F093FB08BD30B589B053
:1009C00000240194124B1A6B42F001021A631A6B55
:1009D00002F001020192019A02941A6B42F00202A3
:1009E0001A631B6B03F002030293029B094D22461C
:1009F0002021284602F014FB2023039301230493B3
:100A00000694059403A9284602F038FA09B030BDCF
:100A1000003802400000024000B585B01548164B72
:100A20000360002343608360036183610362C362E8
:100A3000124A8262C3600122C2610363426100F014
:100A40004DFA68B9002300930122019202930393A7
:100A50006946084800F0AAFB38B905B05DF804FB08
:100A60007B210748FFF726FFECE787210448FFF7C3
:100A700021FFF2E708020020002001400100000FE2
:100A8000743B000808B50C480C4B03600C4B4360EA
:100A900000238360C3604FF480420261436183613D
:100AA000C361036200F09AFD00B908BD9D210548AD
:100AB000FFF700FFF9E700BFAC0100200054004041
:100AC000A0860100743B000808B50B480B4B03607F
:100AD0004FF46143436000238360C36003610C22D1
:100AE00042618361C36101F0FAFC00B908BDB42121
:100AF0000348FFF7DFFEF9E7500200200010014035
:100B0000743B000808B50B480B4B03604FF4E1330E
:100B1000436000238360C36003610C2242618361F0
:100B2000C36101F0DCFC00B908BDC8210348FFF730
:100B3000C1FEF9E7A402002000440040743B000815
:100B400010B584B0094B6C460FCB07C4238000233B
:100B50008DF80E30052002F04DFB4FF0FF330D22D3
:100B60006946034801F0EAFC04B010BD443B0008AC
:100B7000500200207047FEE7FEE7FEE7FEE7704701
:100B80007047704708B502F023FB02F0DCFA08BD9D
:100B900008B5024800F062FA08BD00BF0802002054
:100BA00008B5024801F040F908BD00BFAC010020C3
:100BB00008B5024801F0ECF908BD00BFAC01002007
:100BC00008B5024801F0D0FD08BD00BF500200206A
:100BD00008B5024801F0C8FD08BD00BFA40200200E
:100BE00010B582B000240094214B5A6C42F480422C
:100BF0005A645A6C02F480420092009A01941A6C72
:100C000042F080521A641B6C03F080530193019BE5
:100C1000032002F01FFA224621466FF00B0002F07B
:100C20002BFA224621466FF00A0002F025FA2246EE
:100C300021466FF0090002F01FFA224621466FF0AC
:100C4000040002F019FA224621466FF0030002F078
:100C500013FA224621466FF0010002F00DFA2246F7
:100C600021464FF0FF3002F007FA02B010BD00BF7E
:100C70000038024002680F4B9A4200D0704700B51E
:100C800087B00021009103F58C335A6C42F48072D6
:100C90005A645B6C03F480730093009B03230193FD
:100CA0000293039101A9044802F0E8F807B05DF847
:100CB00004FB00BF00200140000002400268124B0C
:100CC0009A4200D0704700B587B0C0230193122329
:100CD00002930123039303230493042305930DEB51
:100CE00003010A4802F0CAF800230093084B1A6C6B
:100CF00042F400121A641B6C03F400130093009B6F
:100D000007B05DF804FB00BF00540040000402403F
:100D10000038024000B589B00368204A934205D0EC
:100D20001F4A93421ED009B05DF804FB00230193D3
:100D30001C4B5A6C42F010025A645B6C03F01003B7
:100D40000193019B4FF4C063039302230493012397
:100D50000593032306930723079303A9124802F080
:100D60008DF8E0E7002302930E4B1A6C42F4003238
:100D70001A641B6C03F400330293029B0C2303934D
:100D80000223049301230593032306930723079368
:100D900003A9054802F072F8C5E700BF0010014042
:100DA000004400400038024000000240494B5A68AD
:100DB00022F440325A605A6841680A435A60026815
:100DC000536823F48073536002685368016943EAEF
:100DD000012353600268536823F040735360026834
:100DE000536881680B4353600268936823F400637F
:100DF000936002689368C1680B439360826A364BC4
:100E00009A4249D00268936823F070639360026845
:100E10009368816A0B4393600268936823F04053A0
:100E2000936002689368C16A0B4393600268936899
:100E300023F00203936002689368816943EA4103E7
:100E40009360036A002B32D10268536823F4006375
:100E500053600268D36A23F47003D3620168CB6ADB
:100E6000C269013A43EA0253CB620268936823F4F1
:100E70000073936002689368016B43EA41239360B7
:100E80000268936823F48063936002689368416901
:100E900043EA8123936070470268936823F070638C
:100EA00093600268936823F040539360BEE7026842
:100EB000536843F4006353600268536823F460434B
:100EC000536001684B68426A013A43EA42334B601F
:100ED000BFE700BF002301400100000F30B310B591
:100EE0000446036C43B1236C13F0100F0AD00120A9
:100EF000002384F83C3010BD436480F83C30FFF799
:100F0000B9FEF0E7236C23F4885323F0020343F087
:100F1000020323642046FFF749FF00206064236C2E
:100F200023F0030343F001032364E1E7012070474A
:100F300082B00023019390F83C30012B6AD001234A
:100F400080F83C3003689A6812F0010F13D19A6858
:100F500042F001029A60344B1B68344AA2FB03231F
:100F60009B0C03EB4303019302E0019B013B0193C4
:100F7000019B002BF9D10268936813F0010F4BD04D
:100F8000036C23F4E06323F0010343F480730364F0
:100F9000536813F4806F05D0036C23F4405343F47B
:100FA00080530364036C13F4805F20D0436C23F000
:100FB00006034364002380F83C306FF02203136083
:100FC0000268536843F0806343F020035360184B7A
:100FD0005B6813F01F0F0DD103689A6812F0405F31
:100FE0001DD19A6842F080429A60002015E00023EB
:100FF0004364DFE703680F4A934201D000200CE00E
:101000009A6812F0405F0CD19A6842F080429A6070
:10101000002002E0022000E0002002B07047002023
:10102000FBE70020F9E700BF1801002083DE1B4327
:1010300000230140002001400368D96C044A136872
:101040000B441360034A138801339BB2138070472B
:10105000A0020020EC0200207047704738B504461B
:1010600002681168536811F0020F2FD003F02003BB
:1010700063B3036C13F0100F03D1036C43F40073DC
:101080000364936813F0405F19D1A369BBB9D36AB5
:1010900013F4700F03D0936813F4806F0FD153686B
:1010A00023F020035360236C23F480732364236CA8
:1010B00013F4805F03D1236C43F0010323642046C3
:1010C000FFF7BAFF23686FF012021A6023681968ED
:1010D0005A6802F0800211F0040F36D0002A34D092
:1010E000226C12F0100F03D1226C42F400522264E1
:1010F0009A6812F4401F21D19A6B12F4401F03D05A
:101100009A6812F4806F19D15A6812F4806F15D161
:101110009A6812F0405F11D1A2697AB95A6822F038
:1011200080025A60236C23F480532364236C13F4ED
:10113000807F03D1236C43F001032364204600F039
:10114000FDF823686FF00C021A602268116853687A
:1011500003F0400311F0010F04D01BB1136813F02A
:10116000010F09D122681168536803F0806311F000
:10117000200F00D063B938BD236C43F4803323645F
:101180002046FFF769FF23686FF001021A60E9E764
:10119000636C43F0020363646FF020051560204622
:1011A000FFF75BFF23681D60E5E7000030B482B005
:1011B0000023019390F83C30012B00F0B78001230D
:1011C00080F83C300B68092B3ED90568EA689BB271
:1011D00003EB43031E3B072404FA03F322EA030351
:1011E000EB600568EA688C680B8803EB43031E3BE1
:1011F00004FA03F31343EB604B68062B3AD80568F7
:101200006A6B03EB8303053B1F2404FA03F322EA12
:1012100003036B6305686A6B4B6803EB8303053B51
:101220000C8804FA03F313436B630268404B9A4241
:1012300050D002683E4B9A4255D0002380F83C3093
:10124000184602B030BC704705682A699BB203EBB0
:101250004303072404FA03F322EA03032B6105681E
:101260002A698C680B8803EB430304FA03F31343E6
:101270002B61C1E70C2B16D805682A6B03EB83039F
:10128000233B1F2404FA03F322EA03032B630568BC
:101290002A6B4B6803EB8303233B0C8804FA03F3AC
:1012A00013432B63C1E70568EA6A03EB8303413B01
:1012B0001F2404FA03F322EA0303EB620568EA6AD7
:1012C0004B6803EB8303413B0C8804FA03F313439D
:1012D000EB62AAE70B68122BABD1164A536843F4B2
:1012E00080035360A5E70B68103B012BA5D8114A7A
:1012F000536843F4000353600B68102B9DD10E4BD1
:101300001B6802F1467202F52E3202F28332A2FB12
:1013100003239B0C03EB83035A00019202E0019B21
:10132000013B0193019B002BF9D186E7022088E75E
:10133000002001400023014018010020704790F870
:101340003E30DBB2402B13D00369B3F5804F1ED083
:10135000036D002B2DD0036D012B33D1436CC3F3F0
:10136000C813026803F0060343F0F103136129E098
:10137000036D2BB9436C026803F0FE03136121E097
:10138000436C026843F00103DBB213611AE090F88A
:101390003D30DBB2212B06D0436C026843F00103E1
:1013A000DBB213610EE0436C026803F0FE031361CD
:1013B00008E0436CC3F3C813026803F0060343F06C
:1013C000F003136100207047436C0268DBB21361C5
:1013D0000020704710B48BB090F83E30DAB2C16A8A
:1013E000046B90F83D30DBB2222B0CD00023099324
:1013F00003685A6909929B690993099B00200BB005
:101400005DF8044B7047036D0BB9402A17D0036D8C
:101410001BB90369B3F5404F19D0438D9BB2002B24
:1014200025D1029303685A6902929A690292029A3C
:101430001A6842F400721A6000230365DEE7009325
:1014400003685A6900929B690093009BD6E70023CA
:10145000019303685A6901929A690192019A1A6884
:1014600042F480721A60036D01330365C6E7438D51
:101470009BB2012B1AD0438D9BB2022B6BD002681A
:10148000136843F48063136003685A6812F4006FB2
:1014900003D05A6842F480525A60002308930368CC
:1014A0005A6908929B690893089BC5E711F5803F2C
:1014B00016D004293DD008293BD0122C39D0C36A5C
:1014C000022B30D00268136823F48063136000237A
:1014D000059303685A6905929B690593059BABE7E1
:1014E0000268136823F48063136003685A6812F477
:1014F000006F0CD01A6822F480621A6000230393F4
:1015000003685A6903929B690393039B94E7002243
:1015100004925A6904929A690492049A1A6842F4ED
:1015200000721A6088E70268136843F480631360EE
:10153000CDE70268136823F48063136000230693E9
:1015400003685A6906929A690692069A1A6842F4E2
:1015500000721A6070E7C36A022B1BD0026813681E
:1015600023F4806313600268136843F4006313601C
:1015700003685A6812F4006F03D05A6842F480522C
:101580005A600023079303685A6907929B6907937F
:10159000079B51E70268136843F480631360E7E731
:1015A000438D9BB24BB1436A5A1C426202681B785E
:1015B0001361438D013B9BB2438500207047438DEF
:1015C0009BB24BB103681A69436A591C41621A7095
:1015D000438D013B9BB2438500207047002800F0FB
:1015E000828010B5044690F83D30002B41D0242372
:1015F00084F83D302268136823F00103136001F082
:101600001DFC3A4BA3FB00239B0C226853606168CE
:10161000374A914232D80133226813626368344AF0
:10162000934235D85B00B0FBF3F0C0F30B03032B00
:1016300000D804202368D861E369216A22680B433B
:1016400013602369E16822680B4393606369A169B1
:1016500022680B43D3602268136843F001031360D0
:1016600000202064202384F83D30206384F83E006D
:1016700010BD80F83C30FFF721FBB8E74FF49672BD
:1016800002FB03F31B4AA2FB03239B090133C3E7BD
:10169000A16889B903EB4302B0FBF2F2C2F30B027B
:1016A000B2FA82F25209E2B991B903EB4303B0FBFB
:1016B000F3F040F40040BDE703EB830202EB82024B
:1016C000B0FBF2F2C2F30B02B2FA82F25209EAE77D
:1016D00003EB830303EB8303B0FBF3F040F44040E0
:1016E000A8E70120A6E70120704700BF83DE1B4367
:1016F000A0860100D34D621070477047704708B54F
:1017000090F83D30DAB2438D9BB273B1436A591CF5
:10171000416201681B780B61438D013B9BB243859D
:10172000438D9BB20BB9292A01D0002008BD026865
:10173000536823F48063536021230363282380F8D4
:101740003D30FFF7DBFFF0E7704790F83D30DAB24D
:10175000438D9BB2F3B110B503681969436A5C1CF1
:1017600044621970438D013B9BB24385438D9BB20C
:101770000BB92A2A01D0002010BD0268536823F457
:101780008063536022230363282380F83D30FFF7F2
:10179000DBFFF0E700207047704708B503689A69DF
:1017A00012F0040F09D000219B6913F0800F06D0BE
:1017B000028BFFF7F1FF002008BD0121F4E78289C9
:1017C000F7E7704708B590F83D30DBB2C26A042AEB
:1017D00001D0082A01D1282B07D0212B1FD0036864
:1017E0006FF480625A61002008BD1A4BC362026820
:1017F000536823F4E063536003686FF480625A61B6
:101800000268136823F480631360002303632022BB
:1018100080F83D2080F83E30FFF7D3FFE3E70D4B23
:10182000C36221230363202380F83D30002380F826
:101830003E300268536823F4E063536003686FF43A
:1018400080625A610268136823F480631360FFF7B3
:1018500055FFC8E70000FFFF704710B590F83D3016
:10186000DBB290F83E20D2B2C46A018D09B9212BB7
:1018700005D0212B3CD0402A38D0002010BD042CAC
:1018800004D0082C02D014F5803F19D102685368A7
:1018900023F4E06353600268136843F40073136039
:1018A00000230363202380F83D3090F83E30DBB204
:1018B000402B15D0002380F83E30FFF71DFFDCE7FA
:1018C0000268536823F4E063536011230363002329
:1018D00080F83E30202380F83D30FFF70DFFCCE745
:1018E000002380F83E30FFF7B7FFC6E7222BC4D1B4
:1018F000438D9BB27BB190F83E30DBB2402B10D0D1
:10190000436A5A1C426202681B781361438D013B93
:101910009BB24385B1E70268536823F48063536048
:10192000ABE7036D9BB9C36C012B08D0836CC3F389
:10193000072302681361036D013303659DE7836C20
:101940000268DBB21361036D0233036595E7036D33
:10195000012B17D0036D022B8FD190F83D30DBB2F5
:10196000222B17D090F83D30DBB2212B85D1436A72
:101970005A1C426202681B781361438D013B9BB283
:1019800043857AE7836C0268DBB21361036D013330
:10199000036572E70268136843F4807313606CE7B1
:1019A00008B5C26A90F83D30DBB2212B01D000208F
:1019B00008BD438D9BB203BB042A04D0082A02D081
:1019C00012F5803F24D10268536823F4E06353602A
:1019D0000268136843F40073136000230363202339
:1019E00080F83D3090F83E30DBB2402B20D0002311
:1019F00080F83E30FFF780FED9E7436A5A1C426206
:101A000002681B781361438D013B9BB24385CEE78F
:101A10000268536823F4E0635360112303630023D7
:101A200080F83E30202380F83D30FFF765FEBEE7AA
:101A3000002380F83E30FFF70FFFB8E7704708B586
:101A400090F83D30DBB2222B01D0002008BD438D41
:101A50009BB2032B13D903681A69436A591C41626C
:101A60001A70438D013B9BB24385438D9BB2032B80
:101A7000EBD10268536823F480635360E5E7012BE0
:101A8000E3D80268136823F4806313600268536824
:101A900023F4E063536003681A69436A591C416286
:101AA0001A70438D013B9BB24385202380F83D3063
:101AB0000023036390F83E30DBB2402B05D00023B7
:101AC00080F83E30FFF719FEBFE7002380F83E3074
:101AD000FFF7B4FFB9E708B5C26A438D9BB2042B88
:101AE00013D0438D9BB2032B1FD0438D9BB2022B8F
:101AF00030D003681A69436A591C41621A70438DD9
:101B0000013B9BB24385002008BD0268536823F463
:101B10008063536003681A69436A591C41621A70F2
:101B2000438D013B9BB24385EDE70268536823F484
:101B3000806353600268136823F480631360036852
:101B40001A69436A591C41621A70438D013B9BB26A
:101B50004385D8E7013A012A2DD90268136843F476
:101B60000073136003681A69436A591C41621A7052
:101B7000438D013B9BB2438503681A69436A591C34
:101B800041621A70438D013B9BB2438502685368E2
:101B900023F440735360202380F83D300023036317
:101BA00090F83E30DBB2402B10D0002380F83E305E
:101BB000FFF7A3FDA7E70268136823F480631360AF
:101BC0000268136843F480731360CBE7002380F846
:101BD0003E30FFF733FF96E77047704710B5044675
:101BE00090F83D30293B012B37D990F83D30DBB2DE
:101BF000602B07D003685B6813F4006F02D12023C9
:101C000080F83D300023236384F83E302268136857
:101C100023F40063136023685A6812F4006F3FD006
:101C20005A6822F400625A60626B92F83530DBB277
:101C3000012B18D03A4B1365606B01F0F7F90028BF
:101C40003FD02268136823F001031360202384F837
:101C50003D30606B036D984733E000230363282316
:101C600080F83D30D2E7A36B2D4A1A65A06B01F0D6
:101C7000DDF930B323685A6912F0400F04D01A69B5
:101C8000636A591C61621A702268136823F00103A9
:101C90001360202384F83D30A06B036D984710E05B
:101CA00094F83D20D2B2602A11D05A6912F0400F48
:101CB00004D01A69636A591C61621A702046FFF7E2
:101CC0008BFF94F83D30DBB2282B17D010BD2022BB
:101CD00084F83D20002222645A6912F0400F04D09B
:101CE0001A69636A591C61621A702268136823F0CA
:101CF000010313602046FFF770FFE2E7236C13F047
:101D0000040FE3D0074BE36200232363202284F80F
:101D10003D2084F83E302046FFF753FDD6E700BF54
:101D2000652000080000FFFF10B582B090F83D303C
:101D3000DBB201684A6822F4E0624A600022019244
:101D4000026851690191116841F001011160019A25
:101D500001680A6822F480620A6001684A6812F425
:101D6000006F14D090F83D20D2B2222A0AD090F809
:101D70003D20D2B22A2A05D0426B1268526892B234
:101D8000428504E0826B1268526892B24285428DAD
:101D900092B2F2B14A6912F0040F08D00969426A9E
:101DA000541C44621170428D013A92B2428502681D
:101DB000516911F0400F08D01169426A541C446205
:101DC0001170428D013A92B24285026C42F00402D7
:101DD0000264026CA2B9282B15D02A2B13D0292B10
:101DE00011D0026B222A01D0222B17D100230363CA
:101DF000202280F83D2080F83E30FFF7A5FC0DE062
:101E0000FFF7ECFE0AE0074BC362002303632022C6
:101E100080F83D2080F83E30FFF7D3FC002002B070
:101E200010BD00BF0000FFFFF8B5054603689F69BD
:101E30005C695E6890F83E30DBB2102B25D0402BF9
:101E400023D04C4B234013B116F4007F6ED14A4B84
:101E5000234013B116F4007F6BD1484B3B40002B5D
:101E60006FD0474B234033B116F4806F03D0454BFE
:101E70002340002B61D0434B234053B316F4007F23
:101E800027D02846FFF78CFB23E014F0011F02D077
:101E900016F4007F1ED13C4B234013B116F4007F93
:101EA0001CD1344B234013B116F4007F1AD1334BAD
:101EB0003B401BB3324B23402BB116F4806F02D052
:101EC000304B234093B12F4B234013B116F4007FC6
:101ED00010D1F8BD2846FFF732FAE8E72846FFF7A9
:101EE00073FAE4E72846FFF775FAE0E72846FFF7BC
:101EF000B4FCEEE72846FFF753FDEAE7234B234007
:101F00002BB116F4806F02D01E4B234053B11D4BF2
:101F10002340002BDDD016F4007FDAD02846FFF7EF
:101F2000DAFDD6E72846FFF78AFDD2E7FFF735FC52
:101F3000CFE72846FFF7F8FECBE72846FFF7DFFBA1
:101F4000C7E7124B23402BB116F4806F02D00D4B24
:101F5000234053B10B4B2340002BBAD016F4007F23
:101F6000B7D02846FFF72BFBB3E72846FFF7EDFB7A
:101F7000AFE700BF020001001000010004001000E4
:101F80008000010004000100080001004000010081
:101F900070B5044603685D695E68314A154209D030
:101FA00016F4807F06D0026C42F0010202646FF4E6
:101FB00080725A6115F4813F0AD016F4807F07D0F1
:101FC000236C43F00203236423686FF400725A61A8
:101FD00015F4823F1AD016F4807F17D094F83E3063
:101FE000DBB2628D91B294F83D20D2B2206B202BEF
:101FF0001DD0236C43F00403236494F83E30DBB21D
:10200000102B22D023686FF480625A6115F4843F4C
:102010000AD016F4807F07D0236C43F008032364B2
:1020200023686FF400625A61236CA3B970BD002964
:10203000DFD1212A05D0292A03D0282AD9D1212865
:10204000D7D12046FFF7BEFBE0E72268136843F4D0
:1020500000731360D6E72046FFF7C0FDE6E700BF38
:102060000001010008B5806B0268136823F48063E7
:10207000136000234385426B1365826B136590F8F0
:102080003D30DBB2602B0DD0202380F83D300023A3
:1020900080F83E300268136823F001031360FFF7F5
:1020A0009BFD08BD202380F83D30002380F83E30A2
:1020B00003640268136823F001031360FFF78DFDCA
:1020C000EFE70268D36823F49073D3600268536922
:1020D00023F001035361202380F83A30704790F8D1
:1020E0003930DBB2212B2AD18368B3F5805F16D05B
:1020F000036A5A1C02621A7803685A60C38C013B57
:102100009BB2C384EBB90268D36823F08003D36029
:102110000268D36843F04003D36000207047036A2D
:102120001B880268C3F30803536003691BB9036A81
:1021300002330362E2E7036A01330362DEE702204F
:1021400070470020704700002DE9F84304460168FD
:102150000A6922F44052C36813430B610168CA68DC
:1021600022F4164222F00C0283680069034360697E
:102170000343E06903431343CB6021684A6922F4B7
:102180004072A36913434B61E369B3F5004F60D01C
:102190002368B84A934200F0148102F580629342AA
:1021A00000F00F8100F04AFE00EB800000EB8000A1
:1021B0006568AD00B0FBF5F5AF4FA7FB05356D09C0
:1021C0002E0100F03BFE00EB800000EB8000656814
:1021D000AD00B0FBF5F900F031FE00EB800000EB44
:1021E00080006568AD00B0FBF5F5A7FB05356D090E
:1021F0004FF0640808FB15952D013235A7FB053516
:102200006D0905F0F005354400F018FE00EB800084
:1022100000EB80006668B600B0FBF6F600F00EFE3C
:1022200000EB800000EB800063689B00B0FBF3F0E4
:10223000A7FB0030400908FB10684FEA081808F1B6
:102240003208A7FB0837C7F3431723682F449F6062
:102250000DE12368874A93425BD002F58062934286
:1022600057D000F0EBFD00EB800000EB80006568CC
:102270006D00B0FBF5F5804FA7FB05356D092E010C
:1022800000F0DCFD00EB800000EB800065686D0075
:10229000B0FBF5F900F0D2FD00EB800000EB800010
:1022A00065686D00B0FBF5F5A7FB05356D094FF0CE
:1022B000640808FB1595ED003235A7FB05356D095F
:1022C0006D0005F4F875354400F0B8FD00EB8000B2
:1022D00000EB800066687600B0FBF6F600F0AEFD1D
:1022E00000EB800000EB800063685B00B0FBF3F361
:1022F000A7FB03235B0908FB13684FEAC80808F132
:102300003208A7FB0837C7F3421723682F449F60A2
:10231000ADE000F0A3FD00EB800000EB80006568FD
:102320006D00B0FBF5F5544FA7FB05356D092E0187
:1023300000F094FD00EB800000EB800065686D000C
:10234000B0FBF5F900F08AFD00EB800000EB8000A7
:1023500065686D00B0FBF5F5A7FB05356D094FF01D
:10236000640808FB1595ED003235A7FB05356D09AE
:102370006D0005F4F875354400F070FD00EB800049
:1023800000EB800066687600B0FBF6F600F066FDB4
:1023900000EB800000EB800063685B00B0FBF3F3B0
:1023A000A7FB03235B0908FB13684FEAC80808F181
:1023B0003208A7FB0837C7F3421723682F449F60F2
:1023C00055E000F04BFD00EB800000EB80006568FD
:1023D000AD00B0FBF5F5284FA7FB05356D092E01C3
:1023E00000F03CFD00EB800000EB80006568AD0074
:1023F000B0FBF5F900F032FD00EB800000EB80004F
:102400006568AD00B0FBF5F5A7FB05356D094FF02C
:10241000640808FB15952D013235A7FB05356D09BC
:1024200005F0F005354400F019FD00EB800000EBED
:1024300080006668B600B0FBF6F600F00FFD00EB1A
:10244000800000EB800063689B00B0FBF3F0A7FB0B
:102450000030400908FB10684FEA081808F13208FC
:10246000A7FB0837C7F3431723682F449F60BDE8D5
:10247000F88300BF001001401F85EB512DE9F041AA
:1024800005460F4616469846069C2B681B6837EA99
:1024900003030CBF01230023B3421DD1B4F1FF3F5E
:1024A000F3D02CB100F0A0FEA0EB0800A042ECD9C4
:1024B0002A68D36823F4D073D3602A68536923F061
:1024C00001035361202385F8393085F83A30002321
:1024D00085F83830032000E00020BDE8F08158B3D3
:1024E00010B5044690F839300BB3242384F8393002
:1024F0002268D36823F40053D3602046FFF724FEFC
:102500002268136923F4904313612268536923F00E
:102510002A0353612268D36843F40053D360002038
:10252000E063202384F8393084F83A3010BD80F815
:102530003830FEF7EFFBD8E7012070472DE9F04176
:1025400082B01E4690F83930DBB2202B55D10446BC
:102550000D469046002955D0002A55D090F83830C5
:10256000012B53D0012380F838300023C36321238B
:1025700080F8393000F038FE0746A4F82480A4F82B
:10258000268010E000963B46002280212046FFF77F
:1025900075FF00283CD12B882268C3F308035360E1
:1025A0002369C3B90235E38C9BB2B3B1E38C013B21
:1025B0009BB2E384A368B3F5805FE3D000963B460B
:1025C000002280212046FFF759FF18BB2A78236894
:1025D0005A600135E7E70135E5E700963B46002202
:1025E00040212046FFF74AFF0346A8B9202284F87D
:1025F0003920002284F8382000E00223184602B077
:10260000BDE8F0810123F9E70123F7E70223F5E7AD
:102610000323F3E70323F1E70323EFE790F83930CF
:10262000DBB2202B16D1B9B1C2B190F83830012BF2
:1026300016D001628284C2840023C363212280F801
:10264000392080F838300168CA6842F08002CA60D8
:1026500018467047022070470120704701207047DC
:102660000220704790F83A30DBB2202B1BD1E1B149
:10267000EAB190F83830012B1BD081628285C28587
:102680000023C363222280F83A2080F838300168A2
:102690004A6942F001024A610168CA6842F49072D4
:1026A000CA60184670470220704701207047012019
:1026B000704702207047704708B50168CB6823F067
:1026C0004003CB60202380F83930FFF7F4FF00206F
:1026D00008BD704708B590F83A30DBB2222B40D1E4
:1026E0008368B3F5805F0ED0036903BB03685A6843
:1026F000836A591C81621A70C38D013B9BB2C385EA
:10270000F3B100202EE0826A036943B903685B6875
:10271000C3F308031380836A02338362ECE7036820
:102720005B68DBB21380836A01338362E4E703688A
:102730005B68826A511C816203F07F031370DBE7E0
:102740000268D36823F49073D3600268536923F05E
:1027500001035361202380F83A30FFF7BAFF0020CD
:1027600000E0022008BD704710B5044602681368F7
:10277000D168526913F00F0005D113F0200F02D079
:1027800011F0200F53D1002867D012F0010202D1BE
:1027900011F4907F61D013F0010F06D011F4807F07
:1027A00003D0E06B40F00100E06313F0040F04D0AD
:1027B0001AB1E06B40F00200E06313F0020F04D0A6
:1027C0001AB1E06B40F00400E06313F0080F04D08E
:1027D0001AB1E26B42F00802E263E26B002A48D0D1
:1027E00013F0200F02D011F0200F24D123685B6971
:1027F00003F04003E26B12F0080F00D13BB3204618
:10280000FFF75FFC23685A6912F0400F1BD05A692A
:1028100022F040025A61636B8BB11A4A1A65606BF1
:1028200000F004FC28B3606B036D984721E020465C
:10283000FFF750FF1DE02046FFF74CFFD6E720468C
:10284000FFF791FF15E02046FFF78DFF11E02046CE
:10285000FFF789FF0023E3630BE013F0800F02D042
:1028600011F0800F06D113F0400F02D011F0400F8D
:1028700004D110BD2046FFF732FCFAE72046FFF7EF
:102880001BFFF6E78928000808B5806B0023C38585
:10289000C384FFF768FF08BD002800F0BB8170B556
:1028A00082B00446036813F0010F3BD0A74B9B682E
:1028B00003F00C03042B2CD0A44B9B6803F00C03F7
:1028C000082B21D06368B3F5803F4FD0B3F5A02F1C
:1028D00052D09E4B1A6822F480321A601A6822F491
:1028E00080221A606368002B50D000F07DFC054602
:1028F000964B1B6813F4003F14D100F075FC401B8D
:102900006428F5D903208AE1904B5B6813F4800FAB
:10291000D8D08E4B1B6813F4003F03D06368002BA4
:1029200000F07A81236813F0020F55D0874B9B6823
:1029300013F00C0F3ED0854B9B6803F00C03082B63
:1029400033D0E368002B68D0814B01221A6000F07D
:102950004BFC05467D4B1B6813F0020F54D100F071
:1029600043FC401B0228F5D9032058E1774A13683D
:1029700043F480331360B5E7744B1A6842F4802245
:102980001A601A6842F480321A60ABE700F02CFC3F
:1029900005466E4B1B6813F4003FC3D000F024FCC7
:1029A000401B6428F5D9032039E1684B5B6813F4B8
:1029B000800FC6D1654B1B6813F0020F04D0E3688B
:1029C000012B01D001202AE1604A136823F0F803AB
:1029D000216943EAC1031360236813F0080F40D054
:1029E000636963B35B4B01221A6000F0FDFB05468F
:1029F000564B5B6F13F0020F33D100F0F5FB401B19
:102A00000228F5D903200AE1504A136823F0F8039D
:102A1000216943EAC1031360DEE74D4B00221A60CF
:102A200000F0E2FB0546494B1B6813F0020FD3D0C0
:102A300000F0DAFB401B0228F5D90320EFE0454BFC
:102A400000221A6000F0D0FB0546404B5B6F13F08C
:102A5000020F06D000F0C8FB401B0228F5D9032066
:102A6000DDE0236813F0040F79D0384B1B6C13F0B2
:102A7000805F33D100230193344B1A6C42F08052B3
:102A80001A641B6C03F080530193019B0125324BA8
:102A90001B6813F4807F23D0A368012B34D0052B4F
:102AA00038D02A4B1A6F22F001021A671A6F22F0EF
:102AB00004021A67A368002B36D000F095FB064687
:102AC000224B1B6F13F0020F48D100F08DFB801BCF
:102AD00041F288339842F3D90320A0E00025D6E7DD
:102AE0001D4A136843F48073136000F07DFB0646B3
:102AF000194B1B6813F4807FCED100F075FB801B4F
:102B00000228F5D903208AE0104A136F43F001032D
:102B10001367CFE70D4B1A6F42F004021A671A6F62
:102B200042F001021A67C5E700F05EFB0646074B5C
:102B30001B6F13F0020F11D000F056FB801B41F207
:102B400088339842F3D9032069E000BF003802407F
:102B500000004742800E474200700040E5B9A3697B
:102B6000002B5BD0304A926802F00C02082A58D041
:102B7000022B17D02D4B00221A6000F035FB0446C3
:102B8000294B1B6813F0007F42D000F02DFB001B87
:102B90000228F5D9032042E0234A136C23F0805326
:102BA0001364DCE7214B00221A6000F01DFB054690
:102BB0001D4B1B6813F0007F06D000F015FB401B77
:102BC0000228F5D903202AE0E369226A1343626AE6
:102BD00043EA8213A26A5208013A43EA0243E26AD4
:102BE00043EA0263104A5360104B01221A6000F05E
:102BF000FBFA04460C4B1B6813F0007F06D100F073
:102C0000F3FA001B0228F5D9032008E0002006E0B3
:102C1000002004E001207047012000E0002002B005
:102C200070BD0120FBE700BF003802406000474252
:102C3000264B9B6803F00C03042B44D0082B01D0D7
:102C4000234870472DE9F04B204B5A6802F03F02B1
:102C50005B6813F4800F13D01C4B5968C1F38811C3
:102C600000231C48A1FB0001FDF70AFB174B5B6822
:102C7000C3F3014301335B00B0FBF3F0BDE8F08B1D
:102C8000124B5B68C3F388131E4600275C010025C6
:102C9000E41A65EB0705A90141EA9461A001001B54
:102CA00061EB0501CB0043EA5073C400A01943EB6C
:102CB00007018B0243EA9053840220461946002301
:102CC000FDF7DEFAD2E70348704700BF0038024044
:102CD0000024F40040787D01002800F09D8070B54C
:102CE00004464F4B1B6803F00F038B4209D2CBB253
:102CF0004B4A1370136803F00F038B4201D001207D
:102D000070BD236813F0020F17D013F0040F04D026
:102D1000444A936843F4E0539360236813F0080F28
:102D200004D0404A936843F4604393603D4A9368FB
:102D300023F0F003A068034393600D46236813F06B
:102D4000010F32D06368012B21D09A1E012A25D9A8
:102D5000344A126812F0020F60D032498A6822F0B9
:102D6000030213438B6000F03FFA06462D4B9B682D
:102D700003F00C036268B3EB820F16D000F034FA54
:102D8000801B41F288339842F0D90320B8E7254AE6
:102D9000126812F4003FE0D10120B1E7214A126825
:102DA00012F0007FD9D10120AAE71D4B1B6803F068
:102DB0000F03AB4209D9EAB2194B1A701B6803F032
:102DC0000F03AB4201D001209AE7236813F0040FF0
:102DD00006D0144A936823F4E053E1680B439360F0
:102DE000236813F0080F07D00E4A936823F460435A
:102DF000216943EAC1039360FFF71AFF094B9B68FF
:102E0000C3F30313084AD35CD840084B1860002072
:102E100000F09EF9002073E70120704701206FE762
:102E2000003C024000380240803B000818010020AE
:102E3000014B1868704700BF1801002008B5FFF764
:102E4000F7FF044B9B68C3F38223034AD35CD8404B
:102E500008BD00BF00380240903B000808B5FFF7EE
:102E6000E7FF044B9B68C3F34233034AD35CD8406B
:102E700008BD00BF00380240903B000800230F2B24
:102E800000F2C580F0B482B039E0042200E00022F4
:102E9000B2403A4302345E4E46F824205D4A14683C
:102EA000EA4302EA04064F6817F4803F01D045EA7E
:102EB0000406584C2660646802EA04064F6817F45A
:102EC000003F01D045EA0406524C6660A46802EA5D
:102ED00004064F6817F4801F01D045EA04064D4CE4
:102EE000A660E46822404E6816F4001F01D045EA4F
:102EF0000402484CE26001330F2B00F2858001226E
:102F00009A400C6804EA0205AA42F4D14C68022CEB
:102F100001D0122C10D1DE08083650F826C003F07C
:102F20000704A7000F24BC402CEA040C0C69BC4029
:102F300044EA0C0440F8264004685F000326BE40C3
:102F4000F64306EA040C4C6804F00304BC4044EA6F
:102F50000C0404604C6804F1FF3CBCF1010F03D980
:102F6000112C01D0122C10D1846806EA040CCC6814
:102F7000BC4044EA0C048460446824EA02024C68C1
:102F8000C4F300149C4014434460C26816408A682D
:102F9000BA403243C2604A6812F0805FABD0002270
:102FA00001921D4A546C44F480445464526C02F4FF
:102FB00080420192019A9C08A61C154A52F826707C
:102FC00003F0030296000F22B24027EA0207134AD9
:102FD00090423FF45CAF02F5806290420ED002F561
:102FE000806290420CD002F5806290420AD002F5D5
:102FF000806290423FF449AF072249E7012247E748
:10300000022245E7032243E702B0F0BC7047704755
:1030100000380140003C01400038024000000240FE
:1030200012B90904816170478161704790F83530A9
:10303000DBB2022B03D080234365012070470523B8
:1030400080F835300268136823F001031360002014
:1030500070470000074AD36823F4E0631B041B0C8D
:10306000000200F4E060184340F0BF6040F400301C
:10307000D060704700ED00E030B4174BDB68C3F35D
:103080000223C3F10704042C28BF04241D1D062DB0
:1030900018D9033B4FF0FF3505FA04F421EA040187
:1030A000994005FA03F322EA0303194300280BDBD6
:1030B0000901C9B200F1604000F5614080F80013D9
:1030C00030BC70470023E5E700F00F000901C9B2EA
:1030D000024B1954F4E700BF00ED00E014ED00E0EE
:1030E00000F01F02400901239340024A42F82030B9
:1030F000704700BF00E100E00138B0F1807F0AD2E4
:10310000064B5860064AF02182F823100020986090
:1031100007221A6070470120704700BF10E000E0EE
:1031200000ED00E0042805D0054A136823F00403ED
:1031300013607047024A136843F00403136070473A
:1031400010E000E0704708B5FFF7FCFF08BD000085
:1031500010B504460E4B18784FF47A73B3FBF0F3B6
:103160000C4A1068B0FBF3F0FFF7C6FF68B90F2CEC
:1031700001D901200AE0002221464FF0FF30FFF77D
:103180007BFF054B1C60002000E0012010BD00BF4C
:1031900012010020180100201401002008B50B4B7B
:1031A0001A6842F400721A601A6842F480621A6067
:1031B0001A6842F480721A600320FFF74BFF002068
:1031C000FFF7C6FFFDF70CFD002008BD003C0240E4
:1031D000034A1168034B1B780B441360704700BF10
:1031E000F002002012010020014B1868704700BF58
:1031F000F002002038B50446FFF7F6FF0546B4F1AB
:10320000FF3F02D0044B1B781C44FFF7EDFF401B2F
:10321000A042FAD338BD00BF120100200F49D1F8F7
:10322000883043F47003C1F888300D4B1A6842F0BF
:1032300001021A60002098601A6822F0847222F459
:1032400080321A60074A5A601A6822F480221A6093
:10325000D8604FF000638B60704700BF00ED00E066
:103260000038024010300024DFF834D0002103E0A1
:103270000C4B5B58435004310B480C4B42189A429C
:10328000F6D30B4A02E0002342F8043B094B9A4272
:10329000F9D3FFF7C3FF00F011F8FDF7E3FA704729
:1032A00000800120DC3B000800000020800100209D
:1032B00080010020F8020020FEE7000070B50D4EEE
:1032C0000D4CA41BA4100025A54209D10B4E0C4C9B
:1032D00000F02CFCA41BA4100025A54205D170BD54
:1032E00056F8253098470135EEE756F825309847CF
:1032F0000135F2E7D43B0008D43B0008D43B00087A
:10330000D83B00080EB400B59CB01DAB02900690EF
:103310006FF00041094807910491094953F8042BC3
:1033200005910068019302A900F066F8029B002253
:103330001A701CB05DF804EB03B070471C0100204C
:103340000802FFFF2DE9F0478E689E4282460C4638
:103350009046994637D88A8912F4906F31D0256803
:1033600009696F1A6569022305EB450595FBF3F5BD
:1033700009F101033B449D4238BF1D46530530D53A
:10338000294600F02BFB064650B90C23CAF8003042
:10339000A38943F04003A3814FF0FF30BDE8F087DD
:1033A0003A46216900F0A8FAA38923F4906343F018
:1033B0008003A381266165613E44ED1B2660A56004
:1033C0004E464E4500D94E4632464146206800F0F2
:1033D0009EFAA3689B1BA36023681E4426600020FE
:1033E000DCE72A4600F054FB06460028E2D12169BA
:1033F000504600F0A5FAC8E72DE9F04F1D468B892D
:103400001F069DB080460C4616460FD50B696BB95A
:10341000402100F0E3FA2060206128B90C23C8F8AD
:1034200000304FF0FF30C8E0402363610023099370
:1034300020238DF8293030238DF82A3003954FF062
:10344000010B37463D4615F8013B0BB1252B3ED10C
:10345000B7EB060A0BD05346324621464046FFF7EB
:1034600071FF013000F0A480099B534409933B781D
:10347000002B00F09D8000234FF0FF32CDE90523A3
:10348000049307938DF853301A932F46052217F8AB
:10349000011B5048FCF7A4FE049BD0B9D90644BFD9
:1034A00020228DF853201A0744BF2B228DF8532079
:1034B0002A782A2A15D0079A2F4600200A2539464D
:1034C00011F8013B303B092B4DD9B8B10FE02F4625
:1034D000B8E7404A801A0BFA00F0184304903D46C2
:1034E000D3E7039A111D12680391002A01DB0792AA
:1034F00004E0524243F00203079204933B782E2BE0
:103500000CD17B782A2B33D1039B1A1D1B680392A5
:10351000002BB8BF4FF0FF33023705932E4D39789B
:1035200003222846FCF75CFE38B14023401B03FA17
:1035300000F0049B034301370493397827488DF842
:10354000281006227E1CFCF74BFE002838D0244BA6
:1035500013BB039B073323F0070308330393099B33
:103560004B4409936DE705FB023201200F46A6E7A5
:1035700000230137059319460A25384610F8012B18
:10358000303A092A03D9002BC8D00591C6E705FBBC
:10359000012101230746F0E703AB00932246114BBC
:1035A00004A94046AFF30080B0F1FF3F8146D6D179
:1035B000A3895B063FF535AF09981DB0BDE8F08FD4
:1035C00003AB00932246074B04A9404600F082F863
:1035D000EAE700BF983B00089E3B0008A23B0008BA
:1035E00000000000453300082DE9F04791461F46D2
:1035F0008A680B69DDF820809342B8BF1346C9F88A
:10360000003091F8432006460C4612B10133C9F848
:1036100000302368990642BFD9F800300233C9F858
:103620000030256815F0060507D104F1190AE36892
:10363000D9F800209B1AAB4228DC94F8433022686A
:10364000003318BF012392062DD404F143023946FA
:103650003046C047013020D02368E568D9F8002003
:1036600003F00603042B08BFAD1AA36822690CBF40
:1036700025EAE57500259342C4BF9B1AED184FF06B
:1036800000091A344D451AD1002008E001235246A2
:1036900039463046C047013003D14FF0FF30BDE816
:1036A000F0870135C3E7E1185A1C302081F8430048
:1036B000224494F8451082F843100233C5E70123F1
:1036C000224639463046C0470130E6D009F10109AB
:1036D000D8E700002DE9F04301F1430C0C46097EC8
:1036E00085B06E291746064698460C9A00F0B380BE
:1036F00022D8632936D00AD8002900F0B980582989
:1037000000F0838004F1420584F8421032E064291D
:1037100001D06929F6D120681368050603F1040178
:103720002AD51B681160002B03DA2D225B4284F836
:1037300043206F480A2239E0732900F09D8008D8A1
:103740006F2920D07029DDD1236843F02003236046
:1037500003E0752917D07829D4D1782384F845302F
:10376000644855E01368191D1B68116004F1420597
:1037700084F8423001238CE01B68116010F0400F88
:1037800018BF1BB2CFE713682568181D1060280604
:1037900001D51B6802E06806FBD51B8854486F29D9
:1037A00014BF0A220822002184F843106568A5602E
:1037B000002DC0F29580216821F004012160002BCA
:1037C0003DD1002D40F08E806546082A0BD123683C
:1037D000DB0708D5236962689A42DEBF302305F80B
:1037E000013C05F1FF35ACEB05032361CDF800800A
:1037F0003B4603AA21463046FFF7F6FE01304DD185
:103800004FF0FF3005B0BDE8F083394884F845102B
:10381000136821681D1D1B6815600A060BD5CA07B1
:1038200044BF41F0200121601BB9226822F0200230
:1038300022601022B7E74D0648BF9BB2EFE765460E
:10384000B3FBF2F102FB1133C35C05F8013D0B46FB
:103850000029F5D1B9E7136825686169181D106062
:1038600028061B6801D5196002E06A06FBD519809D
:10387000002323616546B9E71368191D11601D68AF
:10388000626800212846FCF7ABFC08B1401B606071
:1038900063682361002384F84330A7E723692A463D
:1038A00039463046C0470130AAD023689B0713D45D
:1038B000E068039B9842B8BF1846A3E701234A4635
:1038C00039463046C04701309AD00135E368039A43
:1038D0009B1AAB42F2DCEBE7002504F11909F5E78E
:1038E000002BACD1037884F8423004F142056CE738
:1038F000A93B0008BA3B000810B5431E0A44914298
:1039000000D110BD11F8014B03F8014FF7E78842D1
:1039100010B501EB020307D8421E99420AD011F8F4
:10392000014B02F8014FF8E78342F5D98118D21A0A
:10393000D34200D110BD13F8014D01F8014DF7E756
:1039400038B50546002945D051F8043C0C1F002B22
:10395000B8BFE41800F0D2F81F4A1368104633B914
:10396000636014602846BDE8384000F0C8B8A34240
:103970000CD921686218934204BF1A685B686360BF
:1039800004BF521822600460ECE713465A680AB17B
:10399000A242FAD919685818A0420BD120680144F4
:1039A000581882421960DDD1106852685A6001448B
:1039B0001960D7E702D90C232B60D3E720682118C0
:1039C0008A4204BF11685268626004BF091821600E
:1039D0005C60C7E738BD00BFA001002070B5CD1CFA
:1039E00025F0030508350C2D38BF0C25002D0646A3
:1039F00001DBA94203D90C233360002070BD00F025
:103A00007DF8214A1468214691B9204C23681BB9DE
:103A1000304600F063F820602946304600F05EF83A
:103A2000431C24D10C233360304600F068F8E4E7EF
:103A30000B685B1B18D40B2B0FD90B60CD50CC1827
:103A4000304600F05CF804F10B00231D20F0070065
:103A5000C31AD3D05A42E250D0E78C424B6816BF0B
:103A6000636013600C46EBE70C464968CCE7C41C66
:103A700024F00304A04205D0211A304600F02EF8AD
:103A80000130CFD02560DBE7A0010020A401002099
:103A9000F8B5074614460E4621B91146BDE8F84070
:103AA000FFF79CBF22B9FFF74BFF25462846F8BD1C
:103AB00000F026F8A0420FD221463846FFF78EFFCD
:103AC00005460028F2D031462246FFF715FF314661
:103AD0003846FFF735FFE9E73546E7E738B5064CE6
:103AE000002305460846236000F012F8431C02D16B
:103AF000236803B12B6038BDF40200207047704783
:103B000051F8043C181F002BBCBF0B58C01870475D
:103B1000044A05491368002B08BF0B46184410607F
:103B200018467047A8010020F8020020F8B500BF31
:103B3000F8BC08BC9E467047F8B500BFF8BC08BC8E
:043B40009E467047E6
:103B4400426F61726420696E6974210D0A0000007D
:103B540025640000434F3220562076616C75653D24
:103B640020000000436F756E7465723D20000000F4
:103B74005372632F696E69742E63000000000000A5
:103B84000000000001020304060708090000000009
:103B940001020304232D302B2000686C4C00656661
:103BA400674546470030313233343536373839418A
:103BB40042434445460030313233343536373839A0
:083BC4006162636465660000A4
:083BCC00E4C6FF7F01000000C8
:043BD400C50100081F
:043BD800A10100083F
:103BDC00D10600086107000885050008810500086A
:103BEC0000000000000000000000000000000000C9
:103BFC0000000000000000000000000000000000B9
:103C0C0000000000000000000000000000000000A8
:103C1C0000000000000001000A000000000000008D
:103C2C0000000100A00000000000000000000000E7
:103C3C000000000000000000000000000000000078
:103C4C000000000000000000000000000000000068
:103C5C000000000000000000000000000000000058
:103C6C000000000000000000000000000000000048
:103C7C000000000000000000000000000000000038
:103C8C000000000000000000000000000000000028
:103C9C000000000000000000000000000000000018
:103CAC000000000000000000000000000000000008
:103CBC0000000000000000000000000000000000F8
:103CCC0000000000000000000000000000000000E8
:103CDC0000000000000000000000000000000000D8
:103CEC000D0A0100100000000024F4002001002047
:103CFC0000000000000000000000000000000000B8
:103D0C0000000000000000000000000000000000A7
:103D1C000000000000000000000000000000000097
:103D2C000000000000000000000000000000000087
:103D3C000000000000000000000000000000000077
:103D4C000000000000000000000000000000000067
:040000050800326954
:00000001FF
